# Cardinal EVM Streams Spec

Cardinal EVM sends messages over Cardinal Streams. The key/value pairs to be
sent over Cardinal Streams are as follows:


* `c/${ChainID}/b/${BlockHash}/h`: Contains the RLP encoded block header corresponding to the BlockHash on the given ChainID
* `c/${ChainID}/b/${BlockHash}/d`: Contains the byte encoding of the total difficulty of the block corresponding to the BlockHash on the given ChainID
* `c/${ChainID}/b/${BlockHash}/u/${Index}`: Contains the RLP encoded header of the Indexth uncle of the block corresponding to the BlockHash on the given ChainID
* `c/${ChainID}/n/${BlockNumber}`: Contains the BlockHash corresponding to the specified BlockNumber on the given ChainID
* `c/${ChainID}/b/${BlockHash}/t/${Index}`: Contains the RLP encoded transaction of the Indexth transaction of the block corresponding to the BlockHash on the given ChainID
* `c/${ChainID}/b/${BlockHash}/r/${Index}`: Contains the RLP encoded transaction receipt metadata (see below) of the Indexth receipt of the block corresponding to the BlockHash on the given ChainID
* `c/${ChainID}/b/${BlockHash}/l/${TxIndex}/${LogIndex}`: Contains the RLP encoded log of the LogIndexth log of the block corresponding to the BlockHash on the given ChainID. TxIndex corresponds to the index of the transaction within the block that produced this log.
* `c/${ChainID}/a/${Keccak256(address)}/d`: The slim encoded account corresponding to address.
* `c/${ChainID}/c/${CodeHash}`: The code where Keccak256(code) == CodeHash
* `c/${ChainID}/a/${Keccak256(address)}`: Delete messages of this prefix should be sent for any addresses that destructed during the block
* `c/${ChainID}/a/${Keccak256(address)}/s/${Keccak256(storage)}`: The value set in the state trie for address at the storage key of storage.


Transaction receipts in Ethereum include the logs themselves. Because Cardinal streams consumers often consume logs independent of the receipt, we have elected to send logs separately, and reduce the information we store as part of a transaction receipt. The receipt metadata has a structure of:

```
receiptMeta{
  ContractAddress: core.Address
  CumulativeGasUsed: uint64
  GasUsed: uint64
  LogsBloom: []byte
  Status: uint64
  LogCount: uint64
  LogOffset: uint64
}
```

Messages should be mapped to Kafka topics as:

* `c/${ChainID}/b/[0-9a-z]+/h`: blockTopic
* `c/${ChainID}/b/[0-9a-z]+/d`: blockTopic
* `c/${ChainID}/b/[0-9a-z]+/u/`: blockTopic
* `c/${ChainID}/n/`: blockTopic
* `c/${ChainID}/b/[0-9a-z]+/t/`: txTopic
* `c/${ChainID}/b/[0-9a-z]+/r/`: receiptTopic
* `c/${ChainID}/b/[0-9a-z]+/l/`: logTopic
* `c/${ChainID}/a/`: stateTopic
* `c/${ChainID}/c/`: codeTopic

Where blockTopic, txTopic, receiptTopic, logTopic, stateTopic, and codeTopic are configurable.

## Example

Take for example block 8,887,085 from the Ethereum Classic Chain:

```
{
  "difficulty": "0x6658813d9ec3",
  "extraData": "0x446567656e506f6f6c",
  "gasLimit": "0x7a1200",
  "gasUsed": "0x70cb0",
  "hash": "0x7433c79900979c812df01a26dfd25a394f0d62d32ecb8b17327c611d7231df4d",
  "logsBloom": "0x00000000000000000000000000000000000000000000000000000000000000000000000000000000000000000000000000000000000000000000000000000000000000000000000000000000000000000000000000000000000000000000000000000000000000000000000000000000000000000000000000000000000000000000000000000000000000000000000000000000000000000000000000000000000000000000000000000000000000000000000000000000000000000000000000000000000000000000000000000000000000000000000000000000000000000000000000000000000000000000000000000000000000000000000000000000",
  "miner": "0xe029b6a51df171c168badbf5389d7613e9b3eab7",
  "mixHash": "0xbd85c05c5720a6b5dc6c5221bafe0c0fb660e2c567c00e7431bc87fa12376372",
  "nonce": "0xfa7422b00337ea1c",
  "number": "0x879b2d",
  "parentHash": "0x9822bd3a3b0737a6146b69636f36e51c3b3144cee217dda6e408c06ed039ad31",
  "receiptsRoot": "0xb5f7ee8779010f241312e378f0839a898ffe0964d04f4a09f99535b4fac7a8b7",
  "sha3Uncles": "0x1dcc4de8dec75d7aab85b567b6ccd41ad312451b948a7413f0a142fd40d49347",
  "size": "0xbc9",
  "stateRoot": "0x4b152a3087cee195dc8bd517654c1ee86ee210e66e0915793bb51266abc5893a",
  "timestamp": "0x5d912e3c",
  "totalDifficulty": "0x2863a0420bcba830a6",
  "transactions": [
    {
      "blockHash": "0x7433c79900979c812df01a26dfd25a394f0d62d32ecb8b17327c611d7231df4d",
      "blockNumber": "0x879b2d",
      "from": "0xdf7d7e053933b5cc24372f878c90e62dadad5d42",
      "gas": "0xc350",
      "gasPrice": "0x3b9aca00",
      "hash": "0x3ae304784b4e3f7d1be721610f903c1670a9bb8b7845d2e993546ee473939e98",
      "input": "0x",
      "nonce": "0x989f19",
      "to": "0x2b69322372df18b9e479256c025f2186066cd596",
      "transactionIndex": "0x0",
      "value": "0xf7f64cb997c82b6",
      "type": "0x0",
      "v": "0x9e",
      "r": "0xf800cf02e7cf6fe21c5c7f35b3128c0f8a987b85bbf4466fb54e57c660719888",
      "s": "0x10149c725887d32d777b2cfbed0707a68e72586103ed5903e423346311be1fb0"
    },
    {
      "blockHash": "0x7433c79900979c812df01a26dfd25a394f0d62d32ecb8b17327c611d7231df4d",
      "blockNumber": "0x879b2d",
      "from": "0xdf7d7e053933b5cc24372f878c90e62dadad5d42",
      "gas": "0xc350",
      "gasPrice": "0x3b9aca00",
      "hash": "0x741eb273d035ec2f5abdd6ba81fda497e8295558eb8cf97db41fbcae7f1bb7da",
      "input": "0x",
      "nonce": "0x989f1a",
      "to": "0x3f80ec6a28c0cfbf322b6894d9ae345d7ca24ec6",
      "transactionIndex": "0x1",
      "value": "0x447640586386c8c",
      "type": "0x0",
      "v": "0x9e",
      "r": "0x3cd356ebb851733d138da66545506afc01b9e3e5089fd2156378aa3d1044cf9c",
      "s": "0x6a3b181daa7a8021b39b2e935405157b04148c66dbcf3b09dfc0ca7142ab83fd"
    },
    {
      "blockHash": "0x7433c79900979c812df01a26dfd25a394f0d62d32ecb8b17327c611d7231df4d",
      "blockNumber": "0x879b2d",
      "from": "0xdf7d7e053933b5cc24372f878c90e62dadad5d42",
      "gas": "0xc350",
      "gasPrice": "0x3b9aca00",
      "hash": "0x478727b80007d17e0ab93041126cb38731433e9f7785b98ac56e56c587de8a0b",
      "input": "0x",
      "nonce": "0x989f1b",
      "to": "0x50685cd73f60daabe27947d819974e27bad06c08",
      "transactionIndex": "0x2",
      "value": "0xdf2c700272602bd",
      "type": "0x0",
      "v": "0x9d",
      "r": "0x60c8933438915168476f889ae1edcc481a4f30408523e0246ac40c62262d3663",
      "s": "0x7608fbd43129710b2d7fd8ac3002b2489e9bf4c7c0f232861abec8e9c4e9fa90"
    },
    {
      "blockHash": "0x7433c79900979c812df01a26dfd25a394f0d62d32ecb8b17327c611d7231df4d",
      "blockNumber": "0x879b2d",
      "from": "0xdf7d7e053933b5cc24372f878c90e62dadad5d42",
      "gas": "0xc350",
      "gasPrice": "0x3b9aca00",
      "hash": "0x18953b495402a3c27046aad4662b18018b8f3ebe1436dbd5888dd3a87cc0580c",
      "input": "0x",
      "nonce": "0x989f1c",
      "to": "0x7fba49f4ffd7ca736e61eabc88ba726e38fdc57f",
      "transactionIndex": "0x3",
      "value": "0x165544a4d311368",
      "type": "0x0",
      "v": "0x9e",
      "r": "0xeaa659e727449e5a224d4287e0f18ae5dd0f39713c97f42f2cc87517acf11467",
      "s": "0x63074b0895caa9f2201591b3ef936e96c4bc29416d0bf4fadb25e267d2a86d54"
    },
    {
      "blockHash": "0x7433c79900979c812df01a26dfd25a394f0d62d32ecb8b17327c611d7231df4d",
      "blockNumber": "0x879b2d",
      "from": "0xdf7d7e053933b5cc24372f878c90e62dadad5d42",
      "gas": "0xc350",
      "gasPrice": "0x3b9aca00",
      "hash": "0xbe26c78099a976c0c9b22ee3f024b5918b4512839087937b263642ab39b17c27",
      "input": "0x",
      "nonce": "0x989f1d",
      "to": "0xaececc259a22c21a876c60f7519ebe8470cd28a9",
      "transactionIndex": "0x4",
      "value": "0xdea3fa331427ac6",
      "type": "0x0",
      "v": "0x9d",
      "r": "0x4fd31bf6b76d9088ebab4ec03879e503b545322207efe8f3b592f80722c03a46",
      "s": "0x57151b9a50ddf27ef70814d36a9b5864ec1307b47795b4444d64fe4e8299d869"
    },
    {
      "blockHash": "0x7433c79900979c812df01a26dfd25a394f0d62d32ecb8b17327c611d7231df4d",
      "blockNumber": "0x879b2d",
      "from": "0xdf7d7e053933b5cc24372f878c90e62dadad5d42",
      "gas": "0xc350",
      "gasPrice": "0x3b9aca00",
      "hash": "0xf3ae31009d76f792c1350112d77fa4a34f8628778631ef0136b458da9a5ffd9a",
      "input": "0x",
      "nonce": "0x989f1e",
      "to": "0xda1d0d797395ce872662c0d183e7d29e8f0b7193",
      "transactionIndex": "0x5",
      "value": "0xe0666dba9579a65",
      "type": "0x0",
      "v": "0x9d",
      "r": "0x51fa13afcb3aa943e3f82783ea15f697bc94b25625a150a14f4d5807039f1bc0",
      "s": "0x414b9e53588d0d0dfad0db58e11f44af54ce64d366077b466bc200ffef9743f4"
    },
    {
      "blockHash": "0x7433c79900979c812df01a26dfd25a394f0d62d32ecb8b17327c611d7231df4d",
      "blockNumber": "0x879b2d",
      "from": "0xdf7d7e053933b5cc24372f878c90e62dadad5d42",
      "gas": "0xc350",
      "gasPrice": "0x3b9aca00",
      "hash": "0x1562ea9f7878bbe69fda2e29a8c3b358214df3eb5a46a25bd825f0f2460dab2c",
      "input": "0x",
      "nonce": "0x989f1f",
      "to": "0xf9d47caad97c7f1b22653379d71dd7b829e7102a",
      "transactionIndex": "0x6",
      "value": "0xe03fe0288bb9423",
      "type": "0x0",
      "v": "0x9d",
      "r": "0x95b8904d115a86dc7160ffb7c90661de2f5e8ae2bd6251c47b0be8926b82756",
      "s": "0x56c62653714783b6596b4eb049e39583ba32b1da32f779495fc1c0ea35f1ffa9"
    },
    {
      "blockHash": "0x7433c79900979c812df01a26dfd25a394f0d62d32ecb8b17327c611d7231df4d",
      "blockNumber": "0x879b2d",
      "from": "0xdf7d7e053933b5cc24372f878c90e62dadad5d42",
      "gas": "0xc350",
      "gasPrice": "0x3b9aca00",
      "hash": "0xac20f02e4e005973db24a96d31dc4c47aac9ddbe20a38ea6bc2fb932498864c7",
      "input": "0x",
      "nonce": "0x989f20",
      "to": "0x1693f18a7b0ee083162e5d802d7fcd407f621826",
      "transactionIndex": "0x7",
      "value": "0x5925b10b843290d",
      "type": "0x0",
      "v": "0x9e",
      "r": "0x6f569b4864b43b3ba1d61529f2911d3191a84f040c318292b292b3f3b539b294",
      "s": "0x442cee1d29f57ab684c5058280003b493bb45dafa0512149e20f5fdd8e09469a"
    },
    {
      "blockHash": "0x7433c79900979c812df01a26dfd25a394f0d62d32ecb8b17327c611d7231df4d",
      "blockNumber": "0x879b2d",
      "from": "0xdf7d7e053933b5cc24372f878c90e62dadad5d42",
      "gas": "0xc350",
      "gasPrice": "0x3b9aca00",
      "hash": "0x8cfc2d7dadb387ebefd1f769a054384780ce23aaec2284f8dc356de22e583a44",
      "input": "0x",
      "nonce": "0x989f21",
      "to": "0x5ce2eeada407041db38c7fed9b9f398a603fe2ce",
      "transactionIndex": "0x8",
      "value": "0xde276a1c38cf33b",
      "type": "0x0",
      "v": "0x9e",
      "r": "0xf42da8cd9491c1abf5446b30f94641bb1d161004e93c5ea97899b08dd876c1d0",
      "s": "0x48ad768f1a97b22a4cd25c383f78006e9d215c0e239beed6e83443f8025d6abf"
    },
    {
      "blockHash": "0x7433c79900979c812df01a26dfd25a394f0d62d32ecb8b17327c611d7231df4d",
      "blockNumber": "0x879b2d",
      "from": "0xdf7d7e053933b5cc24372f878c90e62dadad5d42",
      "gas": "0xc350",
      "gasPrice": "0x3b9aca00",
      "hash": "0x075b957a242e58c87efaf9e2daf71411247ae56ce8cf60410b27ff6dfb053cf1",
      "input": "0x",
      "nonce": "0x989f22",
      "to": "0x9400d85cd4ba2d89ad2898a0f7531684586ac7af",
      "transactionIndex": "0x9",
      "value": "0xdf43b659d3aead9",
      "type": "0x0",
      "v": "0x9e",
      "r": "0xc21a65c3c1fc6bd258f640e13994234040b5ec51e87ce8eb85e73442ca758b1",
      "s": "0x5316b2cb42f7eda664d763ee28d4c9ec58dd9d74d6560525d669bf6ac3422356"
    },
    {
      "blockHash": "0x7433c79900979c812df01a26dfd25a394f0d62d32ecb8b17327c611d7231df4d",
      "blockNumber": "0x879b2d",
      "from": "0xdf7d7e053933b5cc24372f878c90e62dadad5d42",
      "gas": "0xc350",
      "gasPrice": "0x3b9aca00",
      "hash": "0x681fe95174b1afb2d61739b724bf9ce3c75dfd5516ae2f65adc52044bb54f328",
      "input": "0x",
      "nonce": "0x989f23",
      "to": "0xb3fb6a7032549a567c380d8adc690113d3f4a23c",
      "transactionIndex": "0xa",
      "value": "0x6f622227f612a3b",
      "type": "0x0",
      "v": "0x9e",
      "r": "0xb5c028186655a239e9578ce0683ca7360f0875718b9db0626c0b17e047242bf3",
      "s": "0x6f1b9ba9110ee691030a1a0cb227a98cd5a3587b729a706b4f084d24a2e76dc0"
    },
    {
      "blockHash": "0x7433c79900979c812df01a26dfd25a394f0d62d32ecb8b17327c611d7231df4d",
      "blockNumber": "0x879b2d",
      "from": "0xdf7d7e053933b5cc24372f878c90e62dadad5d42",
      "gas": "0xc350",
      "gasPrice": "0x3b9aca00",
      "hash": "0xdbb7db5e6d50739dcd6aab310159b71d0fd7793fdd535b73672c5662b5568b3b",
      "input": "0x",
      "nonce": "0x989f24",
      "to": "0xcafd74fc20e6a770dd063a707346ad29ac3f46c9",
      "transactionIndex": "0xb",
      "value": "0x1635ddd37fbc5c9",
      "type": "0x0",
      "v": "0x9d",
      "r": "0xf3020721d34db3c2d88ec8b2446f93712765b311d724bb96f5e709f4964b0892",
      "s": "0x795a5e9049b4afbbd2f2a8797d020448a536fad2e4e92a735f9490d72c455176"
    },
    {
      "blockHash": "0x7433c79900979c812df01a26dfd25a394f0d62d32ecb8b17327c611d7231df4d",
      "blockNumber": "0x879b2d",
      "from": "0xdf7d7e053933b5cc24372f878c90e62dadad5d42",
      "gas": "0xc350",
      "gasPrice": "0x3b9aca00",
      "hash": "0x95301503962dd9491adac7b3a5940f5cea18515c9ba009fba2180276fd03b63e",
      "input": "0x",
      "nonce": "0x989f25",
      "to": "0xa7f1d6d41439219442b6c822ddf2d7565cb8b28e",
      "transactionIndex": "0xc",
      "value": "0xf0b86fe5fe7b95c",
      "type": "0x0",
      "v": "0x9d",
      "r": "0x69ec0bfc7ceb16d7f9b2d67767fa646331a8c11c0ef4b1d9a439034730b0bca6",
      "s": "0xe0280ab3d9b3755a2995553682cc97ef8f79d60554b331f18c93885c2cd402b"
    },
    {
      "blockHash": "0x7433c79900979c812df01a26dfd25a394f0d62d32ecb8b17327c611d7231df4d",
      "blockNumber": "0x879b2d",
      "from": "0xdf7d7e053933b5cc24372f878c90e62dadad5d42",
      "gas": "0xc350",
      "gasPrice": "0x3b9aca00",
      "hash": "0x4300937bf9f96649ebad5735526fb4f92b6bada6cf2897e7f7a6423f17a54e82",
      "input": "0x",
      "nonce": "0x989f26",
      "to": "0xb1e88443a7b18c36dec3dafd10eb873c6429ba51",
      "transactionIndex": "0xd",
      "value": "0x171a6e562aab07e",
      "type": "0x0",
      "v": "0x9d",
      "r": "0xdc006cab7bdad684128f4f50fddc71cfecc26eddf9dd79372984cfeee1c66d52",
      "s": "0x122bbf5d32f389cde1bdbb472dcc3a5d54f5d1ab537eaae7a74dc8b63859b3d2"
    },
    {
      "blockHash": "0x7433c79900979c812df01a26dfd25a394f0d62d32ecb8b17327c611d7231df4d",
      "blockNumber": "0x879b2d",
      "from": "0xdf7d7e053933b5cc24372f878c90e62dadad5d42",
      "gas": "0xc350",
      "gasPrice": "0x3b9aca00",
      "hash": "0xef51d9d41907cf8bf9d79cef4302653d1754cb99a277626ac29f805ea5b0153e",
      "input": "0x",
      "nonce": "0x989f27",
      "to": "0xd549ae4414b5544df4d4e486babaad4c0d6dcd9d",
      "transactionIndex": "0xe",
      "value": "0xde8b98c9bd6e7aa",
      "type": "0x0",
      "v": "0x9e",
      "r": "0x1cecd9653096179b3804f5f4018db6d23b012967da6339ba9a7b327ce75a8377",
      "s": "0x54b03ab9742a428449a571c2f34a617712473e456287c90fa16bcc16585ff11d"
    },
    {
      "blockHash": "0x7433c79900979c812df01a26dfd25a394f0d62d32ecb8b17327c611d7231df4d",
      "blockNumber": "0x879b2d",
      "from": "0xdf7d7e053933b5cc24372f878c90e62dadad5d42",
      "gas": "0xc350",
      "gasPrice": "0x3b9aca00",
      "hash": "0x49ac74c38dcac0512f62f4d9702268a2bc320d6e1ea7100f81d1524b4dbf5a11",
      "input": "0x",
      "nonce": "0x989f28",
      "to": "0x045728d7191c4cb99f06566f3b298092abbc5590",
      "transactionIndex": "0xf",
      "value": "0x29b0770059bff7e2",
      "type": "0x0",
      "v": "0x9d",
      "r": "0xe2d64122605a1d2eadd924bde92387e27c5011a3989744bd38defc67fae0bcba",
      "s": "0x2637d7df8cfaad4dbc87fff57ee73ca9c63333fcb78f5dd22e7a9eb4a0dc1bb1"
    },
    {
      "blockHash": "0x7433c79900979c812df01a26dfd25a394f0d62d32ecb8b17327c611d7231df4d",
      "blockNumber": "0x879b2d",
      "from": "0xdf7d7e053933b5cc24372f878c90e62dadad5d42",
      "gas": "0xc350",
      "gasPrice": "0x3b9aca00",
      "hash": "0x44a999ca73c165596098ea337b22869d47cd2d0a3b150f7916a425369163efc3",
      "input": "0x",
      "nonce": "0x989f29",
      "to": "0x8379516d4ef5238fc217c474c8408fcd4c0171de",
      "transactionIndex": "0x10",
      "value": "0x169f2249ec63d3b",
      "type": "0x0",
      "v": "0x9e",
      "r": "0x5a88089a14612dc3498ae50b9e35ed42887d9c0dbc55262539edeec074220984",
      "s": "0x14049228416551dd6f9fea3ec43c667539736d1ed1e838b8632f38fa75923b32"
    },
    {
      "blockHash": "0x7433c79900979c812df01a26dfd25a394f0d62d32ecb8b17327c611d7231df4d",
      "blockNumber": "0x879b2d",
      "from": "0xdf7d7e053933b5cc24372f878c90e62dadad5d42",
      "gas": "0xc350",
      "gasPrice": "0x3b9aca00",
      "hash": "0x5c479e5abfb284090cd710717189d0b5b4ac01fca5e586cf4ac5227cc8ca2de4",
      "input": "0x",
      "nonce": "0x989f2a",
      "to": "0xc8d3e66ab0efc2d14eca9c5774ab3351ee74695b",
      "transactionIndex": "0x11",
      "value": "0x2caf543d49337fa",
      "type": "0x0",
      "v": "0x9e",
      "r": "0xe5fc498aafb55112add77b45faccd0ff9f7c1133bedc378d57e80c0db471aafd",
      "s": "0xd29692cfcc95a324784b57eda5d015e91413dd5661dc72ec57b2c3e5acb4717"
    },
    {
      "blockHash": "0x7433c79900979c812df01a26dfd25a394f0d62d32ecb8b17327c611d7231df4d",
      "blockNumber": "0x879b2d",
      "from": "0xdf7d7e053933b5cc24372f878c90e62dadad5d42",
      "gas": "0xc350",
      "gasPrice": "0x3b9aca00",
      "hash": "0x78d92e889d1d7e399975bc1ae1e64bcc7f65a3b5f4b1d2739c71c9c982969c2c",
      "input": "0x",
      "nonce": "0x989f2b",
      "to": "0xd15e8b6a7f511f309153664fb4d0b8387aeaf31d",
      "transactionIndex": "0x12",
      "value": "0x16cb8353b4528be",
      "type": "0x0",
      "v": "0x9e",
      "r": "0x1756e3d3160a2d93c7939883648eefe95483f949995080d7a591d5e447faefc3",
      "s": "0xcce2c89fc561cb51edf9ca2647d3be89e97bf9d91a36c835dd9315afcbffd2f"
    },
    {
      "blockHash": "0x7433c79900979c812df01a26dfd25a394f0d62d32ecb8b17327c611d7231df4d",
      "blockNumber": "0x879b2d",
      "from": "0xdf7d7e053933b5cc24372f878c90e62dadad5d42",
      "gas": "0xc350",
      "gasPrice": "0x3b9aca00",
      "hash": "0x412a4c74c1bffc930f53f72930f319dff2392524a6d7a9bfe954cd85d9c6a158",
      "input": "0x",
      "nonce": "0x989f2c",
      "to": "0x1bddcb65bf2745fdbbfa6881f00a1395f1c2e55f",
      "transactionIndex": "0x13",
      "value": "0x16461360202b87d",
      "type": "0x0",
      "v": "0x9d",
      "r": "0xb73790d77a0e8836a3b629e95fc9843f1a1c85f1c00a482cd252ed9d7e2949b",
      "s": "0xd28b8902e468129778a4a1ebcbe59fbba15ba752e91399743bf626d1a29e260"
    },
    {
      "blockHash": "0x7433c79900979c812df01a26dfd25a394f0d62d32ecb8b17327c611d7231df4d",
      "blockNumber": "0x879b2d",
      "from": "0xdf7d7e053933b5cc24372f878c90e62dadad5d42",
      "gas": "0xc350",
      "gasPrice": "0x3b9aca00",
      "hash": "0xc99399d32a1ab156aedd7ac0577d7181ee94b873ee0deec3cbff0633517b0b21",
      "input": "0x",
      "nonce": "0x989f2d",
      "to": "0xd577e94495762f27e2e77a05e582488017f3fe9e",
      "transactionIndex": "0x14",
      "value": "0x16c676b1a813e10",
      "type": "0x0",
      "v": "0x9d",
      "r": "0x32589e200c02e3a1d6731de58e98830d92ed9f176870d50f87c70fed252ef59c",
      "s": "0x6e910270e732a105a6cb5d2a7f78514fe648528cb19351e5f6b48a262534977"
    },
    {
      "blockHash": "0x7433c79900979c812df01a26dfd25a394f0d62d32ecb8b17327c611d7231df4d",
      "blockNumber": "0x879b2d",
      "from": "0xdf7d7e053933b5cc24372f878c90e62dadad5d42",
      "gas": "0xc350",
      "gasPrice": "0x3b9aca00",
      "hash": "0xc9ad6469d91f92301742e338eabee632eb1eb4cac577246a200521a8c9f729cc",
      "input": "0x",
      "nonce": "0x989f2e",
      "to": "0xfdf16943b8045ffb6aa41f3b7bd7ea3b01515c21",
      "transactionIndex": "0x15",
      "value": "0xde17cd0de8be005",
      "type": "0x0",
      "v": "0x9e",
      "r": "0x4cc656512bcc90352cd1ef05eac36fff62c928ba7e824f9c3871db57c47cf358",
      "s": "0x3b346effa52ef462c95e6216463bfcc7aaf0dfb0b237c85259c274a5cb2055a8"
    }
  ],
  "transactionsRoot": "0x923c45fc309d2638788d1983af9938deeb1be3a8b601ca6291455a5ca46adac4",
  "uncles": []
}
```

The messages for this block include account updates (sent in a subbatch):

```
"c/3d/a/07199f825265e5717b611f6fde8d9ccc47d58ee48ff7b0ca1d6f2c5641e70286/d": "0xcd2b89026569d41206ff54da8080",
"c/3d/a/0a5701cbfbbfebbd9c609fa35e63d39d3e757644e3f8dd3c3603ad57e52a0a8f/d": "0xce820350880165544a4d3113688080",
"c/3d/a/11eee60d7925792817ccd5b58fcf67feadd395c6259adab6d0d803283a4710be/d": "0xce8202fb880dedf86eb268918d8080",
"c/3d/a/14b53b1ce00145b0736f114030c1771faa84c7f5e1c07f837cb550cdfe0778de/d": "0xcd1c8904d800006a2025c2348080",
"c/3d/a/27718564f8023c19ff63cf8547165ecf149bb8d2705a11f60a19951475af8243/d": "0xce820272882370e29a2b9a948d8080",
"c/3d/a/2caa9bc4feb496f9f229b111aeaf83af0cc080db6edff937dcec654149a84067/d": "0xcf82032589875ae4829a52e59bc38080",
"c/3d/a/302cb14dcd76c1f81b1a15b810e6544f470391d0fa208dcec58d28aea8d8c6a7/d": "0xce8201e48806f622227f612a3b8080",
"c/3d/a/42cc9b7ce5b76374b2153304c60390eec10cf84ff367796dbd43ec456b6042b0/d": "0xce820b9c880f83edfc342c93338080",
"c/3d/a/6ad87ac69c71c886f304c0070fec36b29e0d7c76a8d0034bfc02635aa8a00f8e/d": "0xcd0489021eefa61abd756ae08080",
"c/3d/a/73e7dc44cb5854f3c1d629642a71a4f4a09230fd841c975d33d95b4617fcba3a/d": "0xd083989f2f8937f4289b3276f3aecf8080",
"c/3d/a/7419411f1355a6f73c6073994fed9059fac7d3b242455c4dc353fab8f9d5b621/d": "0xcf82093489069f0baa4b59ec43718080",
"c/3d/a/7ad8ed378ff1582df0cffae8c9fd9ae64b3bb29b37f29dcdd90c00c051ec23bd/d": "0xcc0f8805cd115a2f2c40d18080",
"c/3d/a/84572b78ce1d94ddbceda6af34e0631100d447e3cd47b2cafb3bf4f8d06a7e3f/d": "0xcc06883d8614a194a4c8578080",
"c/3d/a/88ae4c5c18df3d3318a69b8c8dc02eeb5d64f8d9d4ea4b01e0369c8d81629c0d/d": "0xcd808904733494961164559d8080",
"c/3d/a/91ef342c0ec09a6a37986206ddb322e91643806f413f71e3113a59322d4bb4f0/d": "0xce8201ca88089613c2df3d450a8080",
"c/3d/a/9ffee678865e5e9ef5b1d40d3892aba3e3aa0d55a10ea6a7f4d0a84e2ed8961e/d": "0xcd1b891cc2ad83e0f16305978080",
"c/3d/a/b7ca0246bfd508b8f74d959b6c479b1c2bfaae1cb064d705d849ed578286839b/d": "0xcc4888db50c387421d14ee8080",
"c/3d/a/d3f2bace7094dcd2a97884f281d66af4bcf36e8b88dabe14c693c592899d6ae7/d": "0xce8202b7880e0385c66f7ea0058080",
"c/3d/a/d79004ebd4513f3a8988f2a25c8cf1a19d18ad8698ab74f677103af1be9ef3a8/d": "0xce82014c880167e70f0f53dd878080",
"c/3d/a/db3348fb9b7089fb15fc46301fb4328af0d9642213d5137515d191d2063f21ad/d": "0xcd2289302ed82efc31f4a72d8080",
"c/3d/a/e71d48e33b521ccf0963cfad14abceaf97327bbd6a713ee09dfc712c68c148db/d": "0xcd188912b8e84191d3fced9b8080",
"c/3d/a/ee39d894830e870821c802a22066e5a61b148289266aeecdabec8c68ce9c6362/d": "0xce820f67880e07b6cdc967baa28080",
"c/3d/a/f61a93a010f1d52e4c8fd60479ba6af2e93f56f53d1173c8e0c96077bc0348ed/d": "0xcd038903fd40c358203c416f8080",
"c/3d/a/f9a47db4551da69c6bf6fe713f1023ed454346a7f2cf56a480bf54ae90b7b8ed/d": "0xce821059880170f09bcf3a41e78080",
"c/3d/b/7433c79900979c812df01a26dfd25a394f0d62d32ecb8b17327c611d7231df4d/d": "0x2863a0420bcba830a6",
```

The RLP encoded block header:

```
"c/3d/b/7433c79900979c812df01a26dfd25a394f0d62d32ecb8b17327c611d7231df4d/h": "0xf90209a09822bd3a3b0737a6146b69636f36e51c3b3144cee217dda6e408c06ed039ad31a01dcc4de8dec75d7aab85b567b6ccd41ad312451b948a7413f0a142fd40d4934794e029b6a51df171c168badbf5389d7613e9b3eab7a04b152a3087cee195dc8bd517654c1ee86ee210e66e0915793bb51266abc5893aa0923c45fc309d2638788d1983af9938deeb1be3a8b601ca6291455a5ca46adac4a0b5f7ee8779010f241312e378f0839a898ffe0964d04f4a09f99535b4fac7a8b7b9010000000000000000000000000000000000000000000000000000000000000000000000000000000000000000000000000000000000000000000000000000000000000000000000000000000000000000000000000000000000000000000000000000000000000000000000000000000000000000000000000000000000000000000000000000000000000000000000000000000000000000000000000000000000000000000000000000000000000000000000000000000000000000000000000000000000000000000000000000000000000000000000000000000000000000000000000000000000000000000000000000000000000000000000000000000000866658813d9ec383879b2d837a120083070cb0845d912e3c89446567656e506f6f6ca0bd85c05c5720a6b5dc6c5221bafe0c0fb660e2c567c00e7431bc87fa1237637288fa7422b00337ea1c"
```

Transaction receipts:

```
"c/3d/b/7433c79900979c812df01a26dfd25a394f0d62d32ecb8b17327c611d7231df4d/r/0": "0xf90121940000000000000000000000000000000000000000825208825208b9010000000000000000000000000000000000000000000000000000000000000000000000000000000000000000000000000000000000000000000000000000000000000000000000000000000000000000000000000000000000000000000000000000000000000000000000000000000000000000000000000000000000000000000000000000000000000000000000000000000000000000000000000000000000000000000000000000000000000000000000000000000000000000000000000000000000000000000000000000000000000000000000000000000000000000000000000000000000000000000000000000000000000000000000000000000000018080",
"c/3d/b/7433c79900979c812df01a26dfd25a394f0d62d32ecb8b17327c611d7231df4d/r/1": "0xf9012194000000000000000000000000000000000000000082a410825208b9010000000000000000000000000000000000000000000000000000000000000000000000000000000000000000000000000000000000000000000000000000000000000000000000000000000000000000000000000000000000000000000000000000000000000000000000000000000000000000000000000000000000000000000000000000000000000000000000000000000000000000000000000000000000000000000000000000000000000000000000000000000000000000000000000000000000000000000000000000000000000000000000000000000000000000000000000000000000000000000000000000000000000000000000000000000000018080",
"c/3d/b/7433c79900979c812df01a26dfd25a394f0d62d32ecb8b17327c611d7231df4d/r/10": "0xf9012294000000000000000000000000000000000000000083057288825208b9010000000000000000000000000000000000000000000000000000000000000000000000000000000000000000000000000000000000000000000000000000000000000000000000000000000000000000000000000000000000000000000000000000000000000000000000000000000000000000000000000000000000000000000000000000000000000000000000000000000000000000000000000000000000000000000000000000000000000000000000000000000000000000000000000000000000000000000000000000000000000000000000000000000000000000000000000000000000000000000000000000000000000000000000000000000000018080",
"c/3d/b/7433c79900979c812df01a26dfd25a394f0d62d32ecb8b17327c611d7231df4d/r/11": "0xf901229400000000000000000000000000000000000000008305c490825208b9010000000000000000000000000000000000000000000000000000000000000000000000000000000000000000000000000000000000000000000000000000000000000000000000000000000000000000000000000000000000000000000000000000000000000000000000000000000000000000000000000000000000000000000000000000000000000000000000000000000000000000000000000000000000000000000000000000000000000000000000000000000000000000000000000000000000000000000000000000000000000000000000000000000000000000000000000000000000000000000000000000000000000000000000000000000000018080",
"c/3d/b/7433c79900979c812df01a26dfd25a394f0d62d32ecb8b17327c611d7231df4d/r/12": "0xf9012294000000000000000000000000000000000000000083061698825208b9010000000000000000000000000000000000000000000000000000000000000000000000000000000000000000000000000000000000000000000000000000000000000000000000000000000000000000000000000000000000000000000000000000000000000000000000000000000000000000000000000000000000000000000000000000000000000000000000000000000000000000000000000000000000000000000000000000000000000000000000000000000000000000000000000000000000000000000000000000000000000000000000000000000000000000000000000000000000000000000000000000000000000000000000000000000000018080",
"c/3d/b/7433c79900979c812df01a26dfd25a394f0d62d32ecb8b17327c611d7231df4d/r/13": "0xf90122940000000000000000000000000000000000000000830668a0825208b9010000000000000000000000000000000000000000000000000000000000000000000000000000000000000000000000000000000000000000000000000000000000000000000000000000000000000000000000000000000000000000000000000000000000000000000000000000000000000000000000000000000000000000000000000000000000000000000000000000000000000000000000000000000000000000000000000000000000000000000000000000000000000000000000000000000000000000000000000000000000000000000000000000000000000000000000000000000000000000000000000000000000000000000000000000000000018080",
"c/3d/b/7433c79900979c812df01a26dfd25a394f0d62d32ecb8b17327c611d7231df4d/r/14": "0xf901229400000000000000000000000000000000000000008306baa8825208b9010000000000000000000000000000000000000000000000000000000000000000000000000000000000000000000000000000000000000000000000000000000000000000000000000000000000000000000000000000000000000000000000000000000000000000000000000000000000000000000000000000000000000000000000000000000000000000000000000000000000000000000000000000000000000000000000000000000000000000000000000000000000000000000000000000000000000000000000000000000000000000000000000000000000000000000000000000000000000000000000000000000000000000000000000000000000018080",
"c/3d/b/7433c79900979c812df01a26dfd25a394f0d62d32ecb8b17327c611d7231df4d/r/15": "0xf9012294000000000000000000000000000000000000000083070cb0825208b9010000000000000000000000000000000000000000000000000000000000000000000000000000000000000000000000000000000000000000000000000000000000000000000000000000000000000000000000000000000000000000000000000000000000000000000000000000000000000000000000000000000000000000000000000000000000000000000000000000000000000000000000000000000000000000000000000000000000000000000000000000000000000000000000000000000000000000000000000000000000000000000000000000000000000000000000000000000000000000000000000000000000000000000000000000000000018080",
"c/3d/b/7433c79900979c812df01a26dfd25a394f0d62d32ecb8b17327c611d7231df4d/r/2": "0xf9012194000000000000000000000000000000000000000082f618825208b9010000000000000000000000000000000000000000000000000000000000000000000000000000000000000000000000000000000000000000000000000000000000000000000000000000000000000000000000000000000000000000000000000000000000000000000000000000000000000000000000000000000000000000000000000000000000000000000000000000000000000000000000000000000000000000000000000000000000000000000000000000000000000000000000000000000000000000000000000000000000000000000000000000000000000000000000000000000000000000000000000000000000000000000000000000000000018080",
"c/3d/b/7433c79900979c812df01a26dfd25a394f0d62d32ecb8b17327c611d7231df4d/r/3": "0xf9012294000000000000000000000000000000000000000083014820825208b9010000000000000000000000000000000000000000000000000000000000000000000000000000000000000000000000000000000000000000000000000000000000000000000000000000000000000000000000000000000000000000000000000000000000000000000000000000000000000000000000000000000000000000000000000000000000000000000000000000000000000000000000000000000000000000000000000000000000000000000000000000000000000000000000000000000000000000000000000000000000000000000000000000000000000000000000000000000000000000000000000000000000000000000000000000000000018080",
"c/3d/b/7433c79900979c812df01a26dfd25a394f0d62d32ecb8b17327c611d7231df4d/r/4": "0xf9012294000000000000000000000000000000000000000083019a28825208b9010000000000000000000000000000000000000000000000000000000000000000000000000000000000000000000000000000000000000000000000000000000000000000000000000000000000000000000000000000000000000000000000000000000000000000000000000000000000000000000000000000000000000000000000000000000000000000000000000000000000000000000000000000000000000000000000000000000000000000000000000000000000000000000000000000000000000000000000000000000000000000000000000000000000000000000000000000000000000000000000000000000000000000000000000000000000018080",
"c/3d/b/7433c79900979c812df01a26dfd25a394f0d62d32ecb8b17327c611d7231df4d/r/5": "0xf901229400000000000000000000000000000000000000008301ec30825208b9010000000000000000000000000000000000000000000000000000000000000000000000000000000000000000000000000000000000000000000000000000000000000000000000000000000000000000000000000000000000000000000000000000000000000000000000000000000000000000000000000000000000000000000000000000000000000000000000000000000000000000000000000000000000000000000000000000000000000000000000000000000000000000000000000000000000000000000000000000000000000000000000000000000000000000000000000000000000000000000000000000000000000000000000000000000000018080",
"c/3d/b/7433c79900979c812df01a26dfd25a394f0d62d32ecb8b17327c611d7231df4d/r/6": "0xf9012294000000000000000000000000000000000000000083023e38825208b9010000000000000000000000000000000000000000000000000000000000000000000000000000000000000000000000000000000000000000000000000000000000000000000000000000000000000000000000000000000000000000000000000000000000000000000000000000000000000000000000000000000000000000000000000000000000000000000000000000000000000000000000000000000000000000000000000000000000000000000000000000000000000000000000000000000000000000000000000000000000000000000000000000000000000000000000000000000000000000000000000000000000000000000000000000000000018080",
"c/3d/b/7433c79900979c812df01a26dfd25a394f0d62d32ecb8b17327c611d7231df4d/r/7": "0xf9012294000000000000000000000000000000000000000083029040825208b9010000000000000000000000000000000000000000000000000000000000000000000000000000000000000000000000000000000000000000000000000000000000000000000000000000000000000000000000000000000000000000000000000000000000000000000000000000000000000000000000000000000000000000000000000000000000000000000000000000000000000000000000000000000000000000000000000000000000000000000000000000000000000000000000000000000000000000000000000000000000000000000000000000000000000000000000000000000000000000000000000000000000000000000000000000000000018080",
"c/3d/b/7433c79900979c812df01a26dfd25a394f0d62d32ecb8b17327c611d7231df4d/r/8": "0xf901229400000000000000000000000000000000000000008302e248825208b9010000000000000000000000000000000000000000000000000000000000000000000000000000000000000000000000000000000000000000000000000000000000000000000000000000000000000000000000000000000000000000000000000000000000000000000000000000000000000000000000000000000000000000000000000000000000000000000000000000000000000000000000000000000000000000000000000000000000000000000000000000000000000000000000000000000000000000000000000000000000000000000000000000000000000000000000000000000000000000000000000000000000000000000000000000000000018080",
"c/3d/b/7433c79900979c812df01a26dfd25a394f0d62d32ecb8b17327c611d7231df4d/r/9": "0xf9012294000000000000000000000000000000000000000083033450825208b9010000000000000000000000000000000000000000000000000000000000000000000000000000000000000000000000000000000000000000000000000000000000000000000000000000000000000000000000000000000000000000000000000000000000000000000000000000000000000000000000000000000000000000000000000000000000000000000000000000000000000000000000000000000000000000000000000000000000000000000000000000000000000000000000000000000000000000000000000000000000000000000000000000000000000000000000000000000000000000000000000000000000000000000000000000000000018080",
"c/3d/b/7433c79900979c812df01a26dfd25a394f0d62d32ecb8b17327c611d7231df4d/r/a": "0xf9012294000000000000000000000000000000000000000083038658825208b9010000000000000000000000000000000000000000000000000000000000000000000000000000000000000000000000000000000000000000000000000000000000000000000000000000000000000000000000000000000000000000000000000000000000000000000000000000000000000000000000000000000000000000000000000000000000000000000000000000000000000000000000000000000000000000000000000000000000000000000000000000000000000000000000000000000000000000000000000000000000000000000000000000000000000000000000000000000000000000000000000000000000000000000000000000000000018080",
"c/3d/b/7433c79900979c812df01a26dfd25a394f0d62d32ecb8b17327c611d7231df4d/r/b": "0xf901229400000000000000000000000000000000000000008303d860825208b9010000000000000000000000000000000000000000000000000000000000000000000000000000000000000000000000000000000000000000000000000000000000000000000000000000000000000000000000000000000000000000000000000000000000000000000000000000000000000000000000000000000000000000000000000000000000000000000000000000000000000000000000000000000000000000000000000000000000000000000000000000000000000000000000000000000000000000000000000000000000000000000000000000000000000000000000000000000000000000000000000000000000000000000000000000000000018080",
"c/3d/b/7433c79900979c812df01a26dfd25a394f0d62d32ecb8b17327c611d7231df4d/r/c": "0xf9012294000000000000000000000000000000000000000083042a68825208b9010000000000000000000000000000000000000000000000000000000000000000000000000000000000000000000000000000000000000000000000000000000000000000000000000000000000000000000000000000000000000000000000000000000000000000000000000000000000000000000000000000000000000000000000000000000000000000000000000000000000000000000000000000000000000000000000000000000000000000000000000000000000000000000000000000000000000000000000000000000000000000000000000000000000000000000000000000000000000000000000000000000000000000000000000000000000018080",
"c/3d/b/7433c79900979c812df01a26dfd25a394f0d62d32ecb8b17327c611d7231df4d/r/d": "0xf9012294000000000000000000000000000000000000000083047c70825208b9010000000000000000000000000000000000000000000000000000000000000000000000000000000000000000000000000000000000000000000000000000000000000000000000000000000000000000000000000000000000000000000000000000000000000000000000000000000000000000000000000000000000000000000000000000000000000000000000000000000000000000000000000000000000000000000000000000000000000000000000000000000000000000000000000000000000000000000000000000000000000000000000000000000000000000000000000000000000000000000000000000000000000000000000000000000000018080",
"c/3d/b/7433c79900979c812df01a26dfd25a394f0d62d32ecb8b17327c611d7231df4d/r/e": "0xf901229400000000000000000000000000000000000000008304ce78825208b9010000000000000000000000000000000000000000000000000000000000000000000000000000000000000000000000000000000000000000000000000000000000000000000000000000000000000000000000000000000000000000000000000000000000000000000000000000000000000000000000000000000000000000000000000000000000000000000000000000000000000000000000000000000000000000000000000000000000000000000000000000000000000000000000000000000000000000000000000000000000000000000000000000000000000000000000000000000000000000000000000000000000000000000000000000000000018080",
"c/3d/b/7433c79900979c812df01a26dfd25a394f0d62d32ecb8b17327c611d7231df4d/r/f": "0xf9012294000000000000000000000000000000000000000083052080825208b9010000000000000000000000000000000000000000000000000000000000000000000000000000000000000000000000000000000000000000000000000000000000000000000000000000000000000000000000000000000000000000000000000000000000000000000000000000000000000000000000000000000000000000000000000000000000000000000000000000000000000000000000000000000000000000000000000000000000000000000000000000000000000000000000000000000000000000000000000000000000000000000000000000000000000000000000000000000000000000000000000000000000000000000000000000000000018080",
```

The RLP encoded transactions:
```
"c/3d/b/7433c79900979c812df01a26dfd25a394f0d62d32ecb8b17327c611d7231df4d/t/0": "0xf86f83989f19843b9aca0082c350942b69322372df18b9e479256c025f2186066cd596880f7f64cb997c82b680819ea0f800cf02e7cf6fe21c5c7f35b3128c0f8a987b85bbf4466fb54e57c660719888a010149c725887d32d777b2cfbed0707a68e72586103ed5903e423346311be1fb0",
"c/3d/b/7433c79900979c812df01a26dfd25a394f0d62d32ecb8b17327c611d7231df4d/t/1": "0xf86f83989f1a843b9aca0082c350943f80ec6a28c0cfbf322b6894d9ae345d7ca24ec6880447640586386c8c80819ea03cd356ebb851733d138da66545506afc01b9e3e5089fd2156378aa3d1044cf9ca06a3b181daa7a8021b39b2e935405157b04148c66dbcf3b09dfc0ca7142ab83fd",
"c/3d/b/7433c79900979c812df01a26dfd25a394f0d62d32ecb8b17327c611d7231df4d/t/10": "0xf86f83989f29843b9aca0082c350948379516d4ef5238fc217c474c8408fcd4c0171de880169f2249ec63d3b80819ea05a88089a14612dc3498ae50b9e35ed42887d9c0dbc55262539edeec074220984a014049228416551dd6f9fea3ec43c667539736d1ed1e838b8632f38fa75923b32",
"c/3d/b/7433c79900979c812df01a26dfd25a394f0d62d32ecb8b17327c611d7231df4d/t/11": "0xf86f83989f2a843b9aca0082c35094c8d3e66ab0efc2d14eca9c5774ab3351ee74695b8802caf543d49337fa80819ea0e5fc498aafb55112add77b45faccd0ff9f7c1133bedc378d57e80c0db471aafda00d29692cfcc95a324784b57eda5d015e91413dd5661dc72ec57b2c3e5acb4717",
"c/3d/b/7433c79900979c812df01a26dfd25a394f0d62d32ecb8b17327c611d7231df4d/t/12": "0xf86f83989f2b843b9aca0082c35094d15e8b6a7f511f309153664fb4d0b8387aeaf31d88016cb8353b4528be80819ea01756e3d3160a2d93c7939883648eefe95483f949995080d7a591d5e447faefc3a00cce2c89fc561cb51edf9ca2647d3be89e97bf9d91a36c835dd9315afcbffd2f",
"c/3d/b/7433c79900979c812df01a26dfd25a394f0d62d32ecb8b17327c611d7231df4d/t/13": "0xf86f83989f2c843b9aca0082c350941bddcb65bf2745fdbbfa6881f00a1395f1c2e55f88016461360202b87d80819da00b73790d77a0e8836a3b629e95fc9843f1a1c85f1c00a482cd252ed9d7e2949ba00d28b8902e468129778a4a1ebcbe59fbba15ba752e91399743bf626d1a29e260",
"c/3d/b/7433c79900979c812df01a26dfd25a394f0d62d32ecb8b17327c611d7231df4d/t/14": "0xf86f83989f2d843b9aca0082c35094d577e94495762f27e2e77a05e582488017f3fe9e88016c676b1a813e1080819da032589e200c02e3a1d6731de58e98830d92ed9f176870d50f87c70fed252ef59ca006e910270e732a105a6cb5d2a7f78514fe648528cb19351e5f6b48a262534977",
"c/3d/b/7433c79900979c812df01a26dfd25a394f0d62d32ecb8b17327c611d7231df4d/t/15": "0xf86f83989f2e843b9aca0082c35094fdf16943b8045ffb6aa41f3b7bd7ea3b01515c21880de17cd0de8be00580819ea04cc656512bcc90352cd1ef05eac36fff62c928ba7e824f9c3871db57c47cf358a03b346effa52ef462c95e6216463bfcc7aaf0dfb0b237c85259c274a5cb2055a8",
"c/3d/b/7433c79900979c812df01a26dfd25a394f0d62d32ecb8b17327c611d7231df4d/t/2": "0xf86f83989f1b843b9aca0082c3509450685cd73f60daabe27947d819974e27bad06c08880df2c700272602bd80819da060c8933438915168476f889ae1edcc481a4f30408523e0246ac40c62262d3663a07608fbd43129710b2d7fd8ac3002b2489e9bf4c7c0f232861abec8e9c4e9fa90",
"c/3d/b/7433c79900979c812df01a26dfd25a394f0d62d32ecb8b17327c611d7231df4d/t/3": "0xf86f83989f1c843b9aca0082c350947fba49f4ffd7ca736e61eabc88ba726e38fdc57f880165544a4d31136880819ea0eaa659e727449e5a224d4287e0f18ae5dd0f39713c97f42f2cc87517acf11467a063074b0895caa9f2201591b3ef936e96c4bc29416d0bf4fadb25e267d2a86d54",
"c/3d/b/7433c79900979c812df01a26dfd25a394f0d62d32ecb8b17327c611d7231df4d/t/4": "0xf86f83989f1d843b9aca0082c35094aececc259a22c21a876c60f7519ebe8470cd28a9880dea3fa331427ac680819da04fd31bf6b76d9088ebab4ec03879e503b545322207efe8f3b592f80722c03a46a057151b9a50ddf27ef70814d36a9b5864ec1307b47795b4444d64fe4e8299d869",
"c/3d/b/7433c79900979c812df01a26dfd25a394f0d62d32ecb8b17327c611d7231df4d/t/5": "0xf86f83989f1e843b9aca0082c35094da1d0d797395ce872662c0d183e7d29e8f0b7193880e0666dba9579a6580819da051fa13afcb3aa943e3f82783ea15f697bc94b25625a150a14f4d5807039f1bc0a0414b9e53588d0d0dfad0db58e11f44af54ce64d366077b466bc200ffef9743f4",
"c/3d/b/7433c79900979c812df01a26dfd25a394f0d62d32ecb8b17327c611d7231df4d/t/6": "0xf86f83989f1f843b9aca0082c35094f9d47caad97c7f1b22653379d71dd7b829e7102a880e03fe0288bb942380819da0095b8904d115a86dc7160ffb7c90661de2f5e8ae2bd6251c47b0be8926b82756a056c62653714783b6596b4eb049e39583ba32b1da32f779495fc1c0ea35f1ffa9",
"c/3d/b/7433c79900979c812df01a26dfd25a394f0d62d32ecb8b17327c611d7231df4d/t/7": "0xf86f83989f20843b9aca0082c350941693f18a7b0ee083162e5d802d7fcd407f6218268805925b10b843290d80819ea06f569b4864b43b3ba1d61529f2911d3191a84f040c318292b292b3f3b539b294a0442cee1d29f57ab684c5058280003b493bb45dafa0512149e20f5fdd8e09469a",
"c/3d/b/7433c79900979c812df01a26dfd25a394f0d62d32ecb8b17327c611d7231df4d/t/8": "0xf86f83989f21843b9aca0082c350945ce2eeada407041db38c7fed9b9f398a603fe2ce880de276a1c38cf33b80819ea0f42da8cd9491c1abf5446b30f94641bb1d161004e93c5ea97899b08dd876c1d0a048ad768f1a97b22a4cd25c383f78006e9d215c0e239beed6e83443f8025d6abf",
"c/3d/b/7433c79900979c812df01a26dfd25a394f0d62d32ecb8b17327c611d7231df4d/t/9": "0xf86f83989f22843b9aca0082c350949400d85cd4ba2d89ad2898a0f7531684586ac7af880df43b659d3aead980819ea00c21a65c3c1fc6bd258f640e13994234040b5ec51e87ce8eb85e73442ca758b1a05316b2cb42f7eda664d763ee28d4c9ec58dd9d74d6560525d669bf6ac3422356",
"c/3d/b/7433c79900979c812df01a26dfd25a394f0d62d32ecb8b17327c611d7231df4d/t/a": "0xf86f83989f23843b9aca0082c35094b3fb6a7032549a567c380d8adc690113d3f4a23c8806f622227f612a3b80819ea0b5c028186655a239e9578ce0683ca7360f0875718b9db0626c0b17e047242bf3a06f1b9ba9110ee691030a1a0cb227a98cd5a3587b729a706b4f084d24a2e76dc0",
"c/3d/b/7433c79900979c812df01a26dfd25a394f0d62d32ecb8b17327c611d7231df4d/t/b": "0xf86f83989f24843b9aca0082c35094cafd74fc20e6a770dd063a707346ad29ac3f46c98801635ddd37fbc5c980819da0f3020721d34db3c2d88ec8b2446f93712765b311d724bb96f5e709f4964b0892a0795a5e9049b4afbbd2f2a8797d020448a536fad2e4e92a735f9490d72c455176",
"c/3d/b/7433c79900979c812df01a26dfd25a394f0d62d32ecb8b17327c611d7231df4d/t/c": "0xf86f83989f25843b9aca0082c35094a7f1d6d41439219442b6c822ddf2d7565cb8b28e880f0b86fe5fe7b95c80819da069ec0bfc7ceb16d7f9b2d67767fa646331a8c11c0ef4b1d9a439034730b0bca6a00e0280ab3d9b3755a2995553682cc97ef8f79d60554b331f18c93885c2cd402b",
"c/3d/b/7433c79900979c812df01a26dfd25a394f0d62d32ecb8b17327c611d7231df4d/t/d": "0xf86f83989f26843b9aca0082c35094b1e88443a7b18c36dec3dafd10eb873c6429ba51880171a6e562aab07e80819da0dc006cab7bdad684128f4f50fddc71cfecc26eddf9dd79372984cfeee1c66d52a0122bbf5d32f389cde1bdbb472dcc3a5d54f5d1ab537eaae7a74dc8b63859b3d2",
"c/3d/b/7433c79900979c812df01a26dfd25a394f0d62d32ecb8b17327c611d7231df4d/t/e": "0xf86f83989f27843b9aca0082c35094d549ae4414b5544df4d4e486babaad4c0d6dcd9d880de8b98c9bd6e7aa80819ea01cecd9653096179b3804f5f4018db6d23b012967da6339ba9a7b327ce75a8377a054b03ab9742a428449a571c2f34a617712473e456287c90fa16bcc16585ff11d",
"c/3d/b/7433c79900979c812df01a26dfd25a394f0d62d32ecb8b17327c611d7231df4d/t/f": "0xf86f83989f28843b9aca0082c35094045728d7191c4cb99f06566f3b298092abbc55908829b0770059bff7e280819da0e2d64122605a1d2eadd924bde92387e27c5011a3989744bd38defc67fae0bcbaa02637d7df8cfaad4dbc87fff57ee73ca9c63333fcb78f5dd22e7a9eb4a0dc1bb1",
```

And a mapping of block number to hash:

```
"c/3d/n/879b2d": "0x7433c79900979c812df01a26dfd25a394f0d62d32ecb8b17327c611d7231df4d",
```

Given these key / values and the prefixes, the block's header message would contain:

Key: `$PrefixByte.$BlockHash` -> 0x007433c79900979c812df01a26dfd25a394f0d62d32ecb8b17327c611d7231df4d
Value: Avro encoding of
```
Batch:
{
  "num": 1337,
  "weight": 0x2674,
  "parent": 0x9822bd3a3b0737a6146b69636f36e51c3b3144cee217dda6e408c06ed039ad31,
  "updates": {
    "c/3d/b/7433c79900979c812df01a26dfd25a394f0d62d32ecb8b17327c611d7231df4d/h": {"count": 1},
    "c/3d/b/7433c79900979c812df01a26dfd25a394f0d62d32ecb8b17327c611d7231df4d/d": {"count": 1},
    "c/3d/n/": {"count": 1},
    "c/3d/b/7433c79900979c812df01a26dfd25a394f0d62d32ecb8b17327c611d7231df4d/t/": {"count": 22},
    "c/3d/b/7433c79900979c812df01a26dfd25a394f0d62d32ecb8b17327c611d7231df4d/r/": {"count": 22},
    "c/3d/a/": {"count": 25},
  }
}
